{
  "_format": "hh-sol-artifact-1",
  "contractName": "Escrow",
  "sourceName": "contracts/Escrow.sol",
  "abi": [
    {
      "inputs": [
        {
          "internalType": "address",
          "name": "_tokenAddress",
          "type": "address"
        }
      ],
      "stateMutability": "nonpayable",
      "type": "constructor"
    },
    {
      "inputs": [
        {
          "internalType": "uint256",
          "name": "propertyId",
          "type": "uint256"
        },
        {
          "internalType": "uint256",
          "name": "offerIndex",
          "type": "uint256"
        }
      ],
      "name": "acceptOffer",
      "outputs": [],
      "stateMutability": "nonpayable",
      "type": "function"
    },
    {
      "inputs": [
        {
          "internalType": "uint256",
          "name": "propertyId",
          "type": "uint256"
        },
        {
          "internalType": "uint256",
          "name": "offerAmount",
          "type": "uint256"
        },
        {
          "internalType": "uint256",
          "name": "tokenAmount",
          "type": "uint256"
        }
      ],
      "name": "makeOffer",
      "outputs": [],
      "stateMutability": "nonpayable",
      "type": "function"
    },
    {
      "inputs": [
        {
          "internalType": "uint256",
          "name": "",
          "type": "uint256"
        },
        {
          "internalType": "uint256",
          "name": "",
          "type": "uint256"
        }
      ],
      "name": "propertyOffers",
      "outputs": [
        {
          "internalType": "address",
          "name": "buyer",
          "type": "address"
        },
        {
          "internalType": "uint256",
          "name": "amount",
          "type": "uint256"
        },
        {
          "internalType": "uint256",
          "name": "tokenAmount",
          "type": "uint256"
        },
        {
          "internalType": "bool",
          "name": "refunded",
          "type": "bool"
        }
      ],
      "stateMutability": "view",
      "type": "function"
    },
    {
      "inputs": [],
      "name": "propertyOwner",
      "outputs": [
        {
          "internalType": "address",
          "name": "",
          "type": "address"
        }
      ],
      "stateMutability": "view",
      "type": "function"
    },
    {
      "inputs": [],
      "name": "tokenAddress",
      "outputs": [
        {
          "internalType": "address",
          "name": "",
          "type": "address"
        }
      ],
      "stateMutability": "view",
      "type": "function"
    }
  ],
  "bytecode": "0x608060405234801561001057600080fd5b50604051610d28380380610d288339818101604052810190610032919061011c565b336000806101000a81548173ffffffffffffffffffffffffffffffffffffffff021916908373ffffffffffffffffffffffffffffffffffffffff16021790555080600160006101000a81548173ffffffffffffffffffffffffffffffffffffffff021916908373ffffffffffffffffffffffffffffffffffffffff16021790555050610149565b600080fd5b600073ffffffffffffffffffffffffffffffffffffffff82169050919050565b60006100e9826100be565b9050919050565b6100f9816100de565b811461010457600080fd5b50565b600081519050610116816100f0565b92915050565b600060208284031215610132576101316100b9565b5b600061014084828501610107565b91505092915050565b610bd0806101586000396000f3fe608060405234801561001057600080fd5b50600436106100575760003560e01c806381257bd51461005c5780639d76ea5814610078578063c550931514610096578063e210a72d146100c9578063f446c38f146100e5575b600080fd5b61007660048036038101906100719190610762565b610103565b005b610080610485565b60405161008d91906107e3565b60405180910390f35b6100b060048036038101906100ab9190610762565b6104ab565b6040516100c09493929190610828565b60405180910390f35b6100e360048036038101906100de919061086d565b610525565b005b6100ed610703565b6040516100fa91906107e3565b60405180910390f35b60008054906101000a900473ffffffffffffffffffffffffffffffffffffffff1673ffffffffffffffffffffffffffffffffffffffff163373ffffffffffffffffffffffffffffffffffffffff1614610191576040517f08c379a00000000000000000000000000000000000000000000000000000000081526004016101889061091d565b60405180910390fd5b6000600260008481526020019081526020016000209050808054905082106101ee576040517f08c379a00000000000000000000000000000000000000000000000000000000081526004016101e590610989565b60405180910390fd5b60005b818054905081101561047f578281036102ee57600160009054906101000a900473ffffffffffffffffffffffffffffffffffffffff1673ffffffffffffffffffffffffffffffffffffffff1663a9059cbb60008054906101000a900473ffffffffffffffffffffffffffffffffffffffff16848481548110610276576102756109a9565b5b9060005260206000209060040201600201546040518363ffffffff1660e01b81526004016102a59291906109d8565b6020604051808303816000875af11580156102c4573d6000803e3d6000fd5b505050506040513d601f19601f820116820180604052508101906102e89190610a2d565b5061046c565b818181548110610301576103006109a9565b5b906000526020600020906004020160030160009054906101000a900460ff1661046b57600160009054906101000a900473ffffffffffffffffffffffffffffffffffffffff1673ffffffffffffffffffffffffffffffffffffffff1663a9059cbb838381548110610375576103746109a9565b5b906000526020600020906004020160000160009054906101000a900473ffffffffffffffffffffffffffffffffffffffff168484815481106103ba576103b96109a9565b5b9060005260206000209060040201600201546040518363ffffffff1660e01b81526004016103e99291906109d8565b6020604051808303816000875af1158015610408573d6000803e3d6000fd5b505050506040513d601f19601f8201168201806040525081019061042c9190610a2d565b506001828281548110610442576104416109a9565b5b906000526020600020906004020160030160006101000a81548160ff0219169083151502179055505b5b808061047790610a89565b9150506101f1565b50505050565b600160009054906101000a900473ffffffffffffffffffffffffffffffffffffffff1681565b600260205281600052604060002081815481106104c757600080fd5b9060005260206000209060040201600091509150508060000160009054906101000a900473ffffffffffffffffffffffffffffffffffffffff16908060010154908060020154908060030160009054906101000a900460ff16905084565b60008111610568576040517f08c379a000000000000000000000000000000000000000000000000000000000815260040161055f90610b43565b60405180910390fd5b600160009054906101000a900473ffffffffffffffffffffffffffffffffffffffff1673ffffffffffffffffffffffffffffffffffffffff166323b872dd3330846040518463ffffffff1660e01b81526004016105c793929190610b63565b6020604051808303816000875af11580156105e6573d6000803e3d6000fd5b505050506040513d601f19601f8201168201806040525081019061060a9190610a2d565b506002600084815260200190815260200160002060405180608001604052803373ffffffffffffffffffffffffffffffffffffffff16815260200184815260200183815260200160001515815250908060018154018082558091505060019003906000526020600020906004020160009091909190915060008201518160000160006101000a81548173ffffffffffffffffffffffffffffffffffffffff021916908373ffffffffffffffffffffffffffffffffffffffff160217905550602082015181600101556040820151816002015560608201518160030160006101000a81548160ff0219169083151502179055505050505050565b60008054906101000a900473ffffffffffffffffffffffffffffffffffffffff1681565b600080fd5b6000819050919050565b61073f8161072c565b811461074a57600080fd5b50565b60008135905061075c81610736565b92915050565b6000806040838503121561077957610778610727565b5b60006107878582860161074d565b92505060206107988582860161074d565b9150509250929050565b600073ffffffffffffffffffffffffffffffffffffffff82169050919050565b60006107cd826107a2565b9050919050565b6107dd816107c2565b82525050565b60006020820190506107f860008301846107d4565b92915050565b6108078161072c565b82525050565b60008115159050919050565b6108228161080d565b82525050565b600060808201905061083d60008301876107d4565b61084a60208301866107fe565b61085760408301856107fe565b6108646060830184610819565b95945050505050565b60008060006060848603121561088657610885610727565b5b60006108948682870161074d565b93505060206108a58682870161074d565b92505060406108b68682870161074d565b9150509250925092565b600082825260208201905092915050565b7f4f6e6c79206f776e65722063616e20616363657074206f666665720000000000600082015250565b6000610907601b836108c0565b9150610912826108d1565b602082019050919050565b60006020820190508181036000830152610936816108fa565b9050919050565b7f496e76616c6964206f6666657220696e64657800000000000000000000000000600082015250565b60006109736013836108c0565b915061097e8261093d565b602082019050919050565b600060208201905081810360008301526109a281610966565b9050919050565b7f4e487b7100000000000000000000000000000000000000000000000000000000600052603260045260246000fd5b60006040820190506109ed60008301856107d4565b6109fa60208301846107fe565b9392505050565b610a0a8161080d565b8114610a1557600080fd5b50565b600081519050610a2781610a01565b92915050565b600060208284031215610a4357610a42610727565b5b6000610a5184828501610a18565b91505092915050565b7f4e487b7100000000000000000000000000000000000000000000000000000000600052601160045260246000fd5b6000610a948261072c565b91507fffffffffffffffffffffffffffffffffffffffffffffffffffffffffffffffff8203610ac657610ac5610a5a565b5b600182019050919050565b7f546f6b656e20616d6f756e74206d75737420626520677265617465722074686160008201527f6e207a65726f0000000000000000000000000000000000000000000000000000602082015250565b6000610b2d6026836108c0565b9150610b3882610ad1565b604082019050919050565b60006020820190508181036000830152610b5c81610b20565b9050919050565b6000606082019050610b7860008301866107d4565b610b8560208301856107d4565b610b9260408301846107fe565b94935050505056fea2646970667358221220918a1055e988dc6295ca1dc8850753c2f58018189eb62beb1faabd7feffdab6d64736f6c63430008140033",
  "linkReferences": {},
  "deployedLinkReferences": {}
}