{
  "_format": "hh-sol-artifact-1",
  "contractName": "Escrow",
  "sourceName": "contracts/Escrow.sol",
  "abi": [
    {
      "inputs": [
        {
          "internalType": "address",
          "name": "_tokenAddress",
          "type": "address"
        }
      ],
      "stateMutability": "nonpayable",
      "type": "constructor"
    },
    {
      "inputs": [
        {
          "internalType": "uint256",
          "name": "propertyId",
          "type": "uint256"
        },
        {
          "internalType": "uint256",
          "name": "offerIndex",
          "type": "uint256"
        }
      ],
      "name": "acceptOffer",
      "outputs": [],
      "stateMutability": "nonpayable",
      "type": "function"
    },
    {
      "inputs": [
        {
          "internalType": "uint256",
          "name": "propertyId",
          "type": "uint256"
        },
        {
          "internalType": "uint256",
          "name": "offerAmount",
          "type": "uint256"
        },
        {
          "internalType": "uint256",
          "name": "tokenAmount",
          "type": "uint256"
        }
      ],
      "name": "makeOffer",
      "outputs": [],
      "stateMutability": "nonpayable",
      "type": "function"
    },
    {
      "inputs": [
        {
          "internalType": "uint256",
          "name": "",
          "type": "uint256"
        },
        {
          "internalType": "uint256",
          "name": "",
          "type": "uint256"
        }
      ],
      "name": "propertyOffers",
      "outputs": [
        {
          "internalType": "address",
          "name": "buyer",
          "type": "address"
        },
        {
          "internalType": "uint256",
          "name": "amount",
          "type": "uint256"
        },
        {
          "internalType": "uint256",
          "name": "tokenAmount",
          "type": "uint256"
        },
        {
          "internalType": "bool",
          "name": "refunded",
          "type": "bool"
        }
      ],
      "stateMutability": "view",
      "type": "function"
    },
    {
      "inputs": [],
      "name": "propertyOwner",
      "outputs": [
        {
          "internalType": "address",
          "name": "",
          "type": "address"
        }
      ],
      "stateMutability": "view",
      "type": "function"
    },
    {
      "inputs": [],
      "name": "tokenAddress",
      "outputs": [
        {
          "internalType": "address",
          "name": "",
          "type": "address"
        }
      ],
      "stateMutability": "view",
      "type": "function"
    }
  ],
  "bytecode": "0x608060405234801561001057600080fd5b50604051610ba1380380610ba18339818101604052810190610032919061011c565b336000806101000a81548173ffffffffffffffffffffffffffffffffffffffff021916908373ffffffffffffffffffffffffffffffffffffffff16021790555080600160006101000a81548173ffffffffffffffffffffffffffffffffffffffff021916908373ffffffffffffffffffffffffffffffffffffffff16021790555050610149565b600080fd5b600073ffffffffffffffffffffffffffffffffffffffff82169050919050565b60006100e9826100be565b9050919050565b6100f9816100de565b811461010457600080fd5b50565b600081519050610116816100f0565b92915050565b600060208284031215610132576101316100b9565b5b600061014084828501610107565b91505092915050565b610a49806101586000396000f3fe608060405234801561001057600080fd5b50600436106100575760003560e01c806381257bd51461005c5780639d76ea5814610078578063c550931514610096578063e210a72d146100c9578063f446c38f146100e5575b600080fd5b610076600480360381019061007191906106d9565b610103565b005b61008061043f565b60405161008d919061075a565b60405180910390f35b6100b060048036038101906100ab91906106d9565b610465565b6040516100c0949392919061079f565b60405180910390f35b6100e360048036038101906100de91906107e4565b6104df565b005b6100ed61067a565b6040516100fa919061075a565b60405180910390f35b60008054906101000a900473ffffffffffffffffffffffffffffffffffffffff1673ffffffffffffffffffffffffffffffffffffffff163373ffffffffffffffffffffffffffffffffffffffff1614610191576040517f08c379a000000000000000000000000000000000000000000000000000000000815260040161018890610894565b60405180910390fd5b600060026000848152602001908152602001600020905060005b8180549050811015610439578281036102a857600160009054906101000a900473ffffffffffffffffffffffffffffffffffffffff1673ffffffffffffffffffffffffffffffffffffffff1663a9059cbb60008054906101000a900473ffffffffffffffffffffffffffffffffffffffff168484815481106102305761022f6108b4565b5b9060005260206000209060040201600201546040518363ffffffff1660e01b815260040161025f9291906108e3565b6020604051808303816000875af115801561027e573d6000803e3d6000fd5b505050506040513d601f19601f820116820180604052508101906102a29190610938565b50610426565b8181815481106102bb576102ba6108b4565b5b906000526020600020906004020160030160009054906101000a900460ff1661042557600160009054906101000a900473ffffffffffffffffffffffffffffffffffffffff1673ffffffffffffffffffffffffffffffffffffffff1663a9059cbb83838154811061032f5761032e6108b4565b5b906000526020600020906004020160000160009054906101000a900473ffffffffffffffffffffffffffffffffffffffff16848481548110610374576103736108b4565b5b9060005260206000209060040201600201546040518363ffffffff1660e01b81526004016103a39291906108e3565b6020604051808303816000875af11580156103c2573d6000803e3d6000fd5b505050506040513d601f19601f820116820180604052508101906103e69190610938565b5060018282815481106103fc576103fb6108b4565b5b906000526020600020906004020160030160006101000a81548160ff0219169083151502179055505b5b808061043190610994565b9150506101ab565b50505050565b600160009054906101000a900473ffffffffffffffffffffffffffffffffffffffff1681565b6002602052816000526040600020818154811061048157600080fd5b9060005260206000209060040201600091509150508060000160009054906101000a900473ffffffffffffffffffffffffffffffffffffffff16908060010154908060020154908060030160009054906101000a900460ff16905084565b600160009054906101000a900473ffffffffffffffffffffffffffffffffffffffff1673ffffffffffffffffffffffffffffffffffffffff166323b872dd3330846040518463ffffffff1660e01b815260040161053e939291906109dc565b6020604051808303816000875af115801561055d573d6000803e3d6000fd5b505050506040513d601f19601f820116820180604052508101906105819190610938565b506002600084815260200190815260200160002060405180608001604052803373ffffffffffffffffffffffffffffffffffffffff16815260200184815260200183815260200160001515815250908060018154018082558091505060019003906000526020600020906004020160009091909190915060008201518160000160006101000a81548173ffffffffffffffffffffffffffffffffffffffff021916908373ffffffffffffffffffffffffffffffffffffffff160217905550602082015181600101556040820151816002015560608201518160030160006101000a81548160ff0219169083151502179055505050505050565b60008054906101000a900473ffffffffffffffffffffffffffffffffffffffff1681565b600080fd5b6000819050919050565b6106b6816106a3565b81146106c157600080fd5b50565b6000813590506106d3816106ad565b92915050565b600080604083850312156106f0576106ef61069e565b5b60006106fe858286016106c4565b925050602061070f858286016106c4565b9150509250929050565b600073ffffffffffffffffffffffffffffffffffffffff82169050919050565b600061074482610719565b9050919050565b61075481610739565b82525050565b600060208201905061076f600083018461074b565b92915050565b61077e816106a3565b82525050565b60008115159050919050565b61079981610784565b82525050565b60006080820190506107b4600083018761074b565b6107c16020830186610775565b6107ce6040830185610775565b6107db6060830184610790565b95945050505050565b6000806000606084860312156107fd576107fc61069e565b5b600061080b868287016106c4565b935050602061081c868287016106c4565b925050604061082d868287016106c4565b9150509250925092565b600082825260208201905092915050565b7f4f6e6c79206f776e65722063616e20616363657074206f666665720000000000600082015250565b600061087e601b83610837565b915061088982610848565b602082019050919050565b600060208201905081810360008301526108ad81610871565b9050919050565b7f4e487b7100000000000000000000000000000000000000000000000000000000600052603260045260246000fd5b60006040820190506108f8600083018561074b565b6109056020830184610775565b9392505050565b61091581610784565b811461092057600080fd5b50565b6000815190506109328161090c565b92915050565b60006020828403121561094e5761094d61069e565b5b600061095c84828501610923565b91505092915050565b7f4e487b7100000000000000000000000000000000000000000000000000000000600052601160045260246000fd5b600061099f826106a3565b91507fffffffffffffffffffffffffffffffffffffffffffffffffffffffffffffffff82036109d1576109d0610965565b5b600182019050919050565b60006060820190506109f1600083018661074b565b6109fe602083018561074b565b610a0b6040830184610775565b94935050505056fea2646970667358221220049abe08dd1e080d6fa4568506971b2cc431917dc576dffc426ad9a03ca858ec64736f6c63430008140033",
  "linkReferences": {},
  "deployedLinkReferences": {}
}