{
  "_format": "hh-sol-artifact-1",
  "contractName": "Escrow",
  "sourceName": "contracts/Escrow.sol",
  "abi": [
    {
      "inputs": [
        {
          "internalType": "address",
          "name": "_tokenAddress",
          "type": "address"
        }
      ],
      "stateMutability": "nonpayable",
      "type": "constructor"
    },
    {
      "anonymous": false,
      "inputs": [
        {
          "indexed": true,
          "internalType": "uint256",
          "name": "propertyId",
          "type": "uint256"
        },
        {
          "indexed": true,
          "internalType": "uint256",
          "name": "offerIndex",
          "type": "uint256"
        },
        {
          "indexed": false,
          "internalType": "address",
          "name": "buyer",
          "type": "address"
        },
        {
          "indexed": false,
          "internalType": "uint256",
          "name": "amount",
          "type": "uint256"
        }
      ],
      "name": "OfferAccepted",
      "type": "event"
    },
    {
      "anonymous": false,
      "inputs": [
        {
          "indexed": true,
          "internalType": "uint256",
          "name": "propertyId",
          "type": "uint256"
        },
        {
          "indexed": true,
          "internalType": "uint256",
          "name": "offerIndex",
          "type": "uint256"
        },
        {
          "indexed": false,
          "internalType": "address",
          "name": "buyer",
          "type": "address"
        }
      ],
      "name": "OfferRejected",
      "type": "event"
    },
    {
      "anonymous": false,
      "inputs": [
        {
          "indexed": true,
          "internalType": "address",
          "name": "from",
          "type": "address"
        },
        {
          "indexed": true,
          "internalType": "address",
          "name": "to",
          "type": "address"
        },
        {
          "indexed": false,
          "internalType": "uint256",
          "name": "amount",
          "type": "uint256"
        }
      ],
      "name": "TokenTransferred",
      "type": "event"
    },
    {
      "inputs": [
        {
          "internalType": "uint256",
          "name": "propertyId",
          "type": "uint256"
        },
        {
          "internalType": "uint256",
          "name": "offerIndex",
          "type": "uint256"
        },
        {
          "internalType": "address",
          "name": "ownerAddress",
          "type": "address"
        }
      ],
      "name": "acceptOffer",
      "outputs": [],
      "stateMutability": "nonpayable",
      "type": "function"
    },
    {
      "inputs": [
        {
          "internalType": "uint256",
          "name": "propertyId",
          "type": "uint256"
        },
        {
          "internalType": "uint256",
          "name": "index",
          "type": "uint256"
        }
      ],
      "name": "getOffer",
      "outputs": [
        {
          "internalType": "address",
          "name": "buyer",
          "type": "address"
        },
        {
          "internalType": "uint256",
          "name": "amount",
          "type": "uint256"
        },
        {
          "internalType": "uint256",
          "name": "tokenAmount",
          "type": "uint256"
        },
        {
          "internalType": "bool",
          "name": "refunded",
          "type": "bool"
        }
      ],
      "stateMutability": "view",
      "type": "function"
    },
    {
      "inputs": [
        {
          "internalType": "uint256",
          "name": "propertyId",
          "type": "uint256"
        }
      ],
      "name": "getOffersCount",
      "outputs": [
        {
          "internalType": "uint256",
          "name": "",
          "type": "uint256"
        }
      ],
      "stateMutability": "view",
      "type": "function"
    },
    {
      "inputs": [
        {
          "internalType": "uint256",
          "name": "propertyId",
          "type": "uint256"
        },
        {
          "internalType": "uint256",
          "name": "offerAmount",
          "type": "uint256"
        },
        {
          "internalType": "uint256",
          "name": "tokenAmount",
          "type": "uint256"
        }
      ],
      "name": "makeOffer",
      "outputs": [],
      "stateMutability": "nonpayable",
      "type": "function"
    },
    {
      "inputs": [
        {
          "internalType": "uint256",
          "name": "",
          "type": "uint256"
        },
        {
          "internalType": "uint256",
          "name": "",
          "type": "uint256"
        }
      ],
      "name": "propertyOffers",
      "outputs": [
        {
          "internalType": "address",
          "name": "buyer",
          "type": "address"
        },
        {
          "internalType": "uint256",
          "name": "amount",
          "type": "uint256"
        },
        {
          "internalType": "uint256",
          "name": "tokenAmount",
          "type": "uint256"
        },
        {
          "internalType": "bool",
          "name": "refunded",
          "type": "bool"
        }
      ],
      "stateMutability": "view",
      "type": "function"
    },
    {
      "inputs": [
        {
          "internalType": "uint256",
          "name": "",
          "type": "uint256"
        }
      ],
      "name": "propertyOwners",
      "outputs": [
        {
          "internalType": "address",
          "name": "",
          "type": "address"
        }
      ],
      "stateMutability": "view",
      "type": "function"
    },
    {
      "inputs": [
        {
          "internalType": "uint256",
          "name": "propertyId",
          "type": "uint256"
        },
        {
          "internalType": "address",
          "name": "owner",
          "type": "address"
        }
      ],
      "name": "setPropertyOwner",
      "outputs": [],
      "stateMutability": "nonpayable",
      "type": "function"
    },
    {
      "inputs": [],
      "name": "tokenAddress",
      "outputs": [
        {
          "internalType": "address",
          "name": "",
          "type": "address"
        }
      ],
      "stateMutability": "view",
      "type": "function"
    }
  ],
  "bytecode": "0x60806040523480156200001157600080fd5b5060405162001257380380620012578339818101604052810190620000379190620000e8565b806000806101000a81548173ffffffffffffffffffffffffffffffffffffffff021916908373ffffffffffffffffffffffffffffffffffffffff160217905550506200011a565b600080fd5b600073ffffffffffffffffffffffffffffffffffffffff82169050919050565b6000620000b08262000083565b9050919050565b620000c281620000a3565b8114620000ce57600080fd5b50565b600081519050620000e281620000b7565b92915050565b6000602082840312156200010157620001006200007e565b5b60006200011184828501620000d1565b91505092915050565b61112d806200012a6000396000f3fe608060405234801561001057600080fd5b50600436106100885760003560e01c80637f2af0831161005b5780637f2af083146101285780639d76ea5814610158578063c550931514610176578063e210a72d146101a957610088565b806307ae6a5d1461008d5780631f13ccf9146100a95780633cd0cd67146100d95780635813a6831461010c575b600080fd5b6100a760048036038101906100a29190610c3c565b6101c5565b005b6100c360048036038101906100be9190610c8f565b610722565b6040516100d09190610ccb565b60405180910390f35b6100f360048036038101906100ee9190610ce6565b610742565b6040516101039493929190610d50565b60405180910390f35b61012660048036038101906101219190610d95565b6107d2565b005b610142600480360381019061013d9190610c8f565b610897565b60405161014f9190610dd5565b60405180910390f35b6101606108ca565b60405161016d9190610dd5565b60405180910390f35b610190600480360381019061018b9190610ce6565b6108ee565b6040516101a09493929190610d50565b60405180910390f35b6101c360048036038101906101be9190610df0565b610968565b005b600073ffffffffffffffffffffffffffffffffffffffff168173ffffffffffffffffffffffffffffffffffffffff1603610234576040517f08c379a000000000000000000000000000000000000000000000000000000000815260040161022b90610ea0565b60405180910390fd5b600060026000858152602001908152602001600020905080805490508310610291576040517f08c379a000000000000000000000000000000000000000000000000000000000815260040161028890610f0c565b60405180910390fd5b60008184815481106102a6576102a5610f2c565b5b9060005260206000209060040201905060008054906101000a900473ffffffffffffffffffffffffffffffffffffffff1673ffffffffffffffffffffffffffffffffffffffff1663a9059cbb8483600201546040518363ffffffff1660e01b8152600401610315929190610f5b565b6020604051808303816000875af1158015610334573d6000803e3d6000fd5b505050506040513d601f19601f820116820180604052508101906103589190610fb0565b508273ffffffffffffffffffffffffffffffffffffffff163073ffffffffffffffffffffffffffffffffffffffff167f9c8515990fd8c61431c4ac8db9b81475f90c292a1dda77731e56c22e64fc764383600201546040516103ba9190610ccb565b60405180910390a383857fd2bcb88564ee3936089ae1e4ab2296ba37e8775949ff81054e4b3b73792988928360000160009054906101000a900473ffffffffffffffffffffffffffffffffffffffff16846001015460405161041d929190610f5b565b60405180910390a360005b828054905081101561071a57848114158015610473575082818154811061045257610451610f2c565b5b906000526020600020906004020160030160009054906101000a900460ff16155b156107075760008054906101000a900473ffffffffffffffffffffffffffffffffffffffff1673ffffffffffffffffffffffffffffffffffffffff1663a9059cbb8483815481106104c7576104c6610f2c565b5b906000526020600020906004020160000160009054906101000a900473ffffffffffffffffffffffffffffffffffffffff1685848154811061050c5761050b610f2c565b5b9060005260206000209060040201600201546040518363ffffffff1660e01b815260040161053b929190610f5b565b6020604051808303816000875af115801561055a573d6000803e3d6000fd5b505050506040513d601f19601f8201168201806040525081019061057e9190610fb0565b50600183828154811061059457610593610f2c565b5b906000526020600020906004020160030160006101000a81548160ff0219169083151502179055508281815481106105cf576105ce610f2c565b5b906000526020600020906004020160000160009054906101000a900473ffffffffffffffffffffffffffffffffffffffff1673ffffffffffffffffffffffffffffffffffffffff163073ffffffffffffffffffffffffffffffffffffffff167f9c8515990fd8c61431c4ac8db9b81475f90c292a1dda77731e56c22e64fc764385848154811061066257610661610f2c565b5b9060005260206000209060040201600201546040516106819190610ccb565b60405180910390a380867f77e9ef5f8ea762770b25f430efad356b7a9a0faae2fa0b11df0221f61ac2bcc98584815481106106bf576106be610f2c565b5b906000526020600020906004020160000160009054906101000a900473ffffffffffffffffffffffffffffffffffffffff166040516106fe9190610dd5565b60405180910390a35b80806107129061100c565b915050610428565b505050505050565b600060026000838152602001908152602001600020805490509050919050565b600080600080600060026000888152602001908152602001600020868154811061076f5761076e610f2c565b5b906000526020600020906004020190508060000160009054906101000a900473ffffffffffffffffffffffffffffffffffffffff16816001015482600201548360030160009054906101000a900460ff1694509450945094505092959194509250565b600073ffffffffffffffffffffffffffffffffffffffff168173ffffffffffffffffffffffffffffffffffffffff1603610841576040517f08c379a000000000000000000000000000000000000000000000000000000000815260040161083890610ea0565b60405180910390fd5b806001600084815260200190815260200160002060006101000a81548173ffffffffffffffffffffffffffffffffffffffff021916908373ffffffffffffffffffffffffffffffffffffffff1602179055505050565b60016020528060005260406000206000915054906101000a900473ffffffffffffffffffffffffffffffffffffffff1681565b60008054906101000a900473ffffffffffffffffffffffffffffffffffffffff1681565b6002602052816000526040600020818154811061090a57600080fd5b9060005260206000209060040201600091509150508060000160009054906101000a900473ffffffffffffffffffffffffffffffffffffffff16908060010154908060020154908060030160009054906101000a900460ff16905084565b600073ffffffffffffffffffffffffffffffffffffffff166001600085815260200190815260200160002060009054906101000a900473ffffffffffffffffffffffffffffffffffffffff1673ffffffffffffffffffffffffffffffffffffffff1603610a0a576040517f08c379a0000000000000000000000000000000000000000000000000000000008152600401610a01906110a0565b60405180910390fd5b60008054906101000a900473ffffffffffffffffffffffffffffffffffffffff1673ffffffffffffffffffffffffffffffffffffffff166323b872dd3330846040518463ffffffff1660e01b8152600401610a67939291906110c0565b6020604051808303816000875af1158015610a86573d6000803e3d6000fd5b505050506040513d601f19601f82011682018060405250810190610aaa9190610fb0565b506002600084815260200190815260200160002060405180608001604052803373ffffffffffffffffffffffffffffffffffffffff16815260200184815260200183815260200160001515815250908060018154018082558091505060019003906000526020600020906004020160009091909190915060008201518160000160006101000a81548173ffffffffffffffffffffffffffffffffffffffff021916908373ffffffffffffffffffffffffffffffffffffffff160217905550602082015181600101556040820151816002015560608201518160030160006101000a81548160ff0219169083151502179055505050505050565b600080fd5b6000819050919050565b610bbb81610ba8565b8114610bc657600080fd5b50565b600081359050610bd881610bb2565b92915050565b600073ffffffffffffffffffffffffffffffffffffffff82169050919050565b6000610c0982610bde565b9050919050565b610c1981610bfe565b8114610c2457600080fd5b50565b600081359050610c3681610c10565b92915050565b600080600060608486031215610c5557610c54610ba3565b5b6000610c6386828701610bc9565b9350506020610c7486828701610bc9565b9250506040610c8586828701610c27565b9150509250925092565b600060208284031215610ca557610ca4610ba3565b5b6000610cb384828501610bc9565b91505092915050565b610cc581610ba8565b82525050565b6000602082019050610ce06000830184610cbc565b92915050565b60008060408385031215610cfd57610cfc610ba3565b5b6000610d0b85828601610bc9565b9250506020610d1c85828601610bc9565b9150509250929050565b610d2f81610bfe565b82525050565b60008115159050919050565b610d4a81610d35565b82525050565b6000608082019050610d656000830187610d26565b610d726020830186610cbc565b610d7f6040830185610cbc565b610d8c6060830184610d41565b95945050505050565b60008060408385031215610dac57610dab610ba3565b5b6000610dba85828601610bc9565b9250506020610dcb85828601610c27565b9150509250929050565b6000602082019050610dea6000830184610d26565b92915050565b600080600060608486031215610e0957610e08610ba3565b5b6000610e1786828701610bc9565b9350506020610e2886828701610bc9565b9250506040610e3986828701610bc9565b9150509250925092565b600082825260208201905092915050565b7f496e76616c6964206f776e657220616464726573730000000000000000000000600082015250565b6000610e8a601583610e43565b9150610e9582610e54565b602082019050919050565b60006020820190508181036000830152610eb981610e7d565b9050919050565b7f496e76616c6964206f6666657220696e64657800000000000000000000000000600082015250565b6000610ef6601383610e43565b9150610f0182610ec0565b602082019050919050565b60006020820190508181036000830152610f2581610ee9565b9050919050565b7f4e487b7100000000000000000000000000000000000000000000000000000000600052603260045260246000fd5b6000604082019050610f706000830185610d26565b610f7d6020830184610cbc565b9392505050565b610f8d81610d35565b8114610f9857600080fd5b50565b600081519050610faa81610f84565b92915050565b600060208284031215610fc657610fc5610ba3565b5b6000610fd484828501610f9b565b91505092915050565b7f4e487b7100000000000000000000000000000000000000000000000000000000600052601160045260246000fd5b600061101782610ba8565b91507fffffffffffffffffffffffffffffffffffffffffffffffffffffffffffffffff820361104957611048610fdd565b5b600182019050919050565b7f50726f7065727479206f776e6572206e6f742073657400000000000000000000600082015250565b600061108a601683610e43565b915061109582611054565b602082019050919050565b600060208201905081810360008301526110b98161107d565b9050919050565b60006060820190506110d56000830186610d26565b6110e26020830185610d26565b6110ef6040830184610cbc565b94935050505056fea2646970667358221220ba3de639879f011474d5363e60e982cc42d147781743fb5a9bebda15782489be64736f6c63430008140033",
  "linkReferences": {},
  "deployedLinkReferences": {}
}