{
  "_format": "hh-sol-artifact-1",
  "contractName": "Escrow",
  "sourceName": "contracts/Escrow.sol",
  "abi": [
    {
      "inputs": [
        {
          "internalType": "address",
          "name": "tokenAddress",
          "type": "address"
        }
      ],
      "stateMutability": "nonpayable",
      "type": "constructor"
    },
    {
      "anonymous": false,
      "inputs": [
        {
          "indexed": true,
          "internalType": "address",
          "name": "buyer",
          "type": "address"
        },
        {
          "indexed": false,
          "internalType": "uint256",
          "name": "propertyId",
          "type": "uint256"
        },
        {
          "indexed": false,
          "internalType": "uint256",
          "name": "offerAmount",
          "type": "uint256"
        }
      ],
      "name": "OfferMade",
      "type": "event"
    },
    {
      "inputs": [
        {
          "internalType": "uint256",
          "name": "propertyId",
          "type": "uint256"
        },
        {
          "internalType": "uint256",
          "name": "offerIndex",
          "type": "uint256"
        }
      ],
      "name": "acceptOffer",
      "outputs": [],
      "stateMutability": "nonpayable",
      "type": "function"
    },
    {
      "inputs": [
        {
          "internalType": "uint256",
          "name": "propertyId",
          "type": "uint256"
        },
        {
          "internalType": "uint256",
          "name": "offerAmount",
          "type": "uint256"
        },
        {
          "internalType": "uint256",
          "name": "tokenAmount",
          "type": "uint256"
        }
      ],
      "name": "makeOffer",
      "outputs": [],
      "stateMutability": "nonpayable",
      "type": "function"
    },
    {
      "inputs": [
        {
          "internalType": "uint256",
          "name": "",
          "type": "uint256"
        },
        {
          "internalType": "uint256",
          "name": "",
          "type": "uint256"
        }
      ],
      "name": "propertyOffers",
      "outputs": [
        {
          "internalType": "address",
          "name": "buyer",
          "type": "address"
        },
        {
          "internalType": "uint256",
          "name": "amount",
          "type": "uint256"
        },
        {
          "internalType": "uint256",
          "name": "tokenAmount",
          "type": "uint256"
        },
        {
          "internalType": "bool",
          "name": "refunded",
          "type": "bool"
        }
      ],
      "stateMutability": "view",
      "type": "function"
    },
    {
      "inputs": [],
      "name": "propertyOwner",
      "outputs": [
        {
          "internalType": "address",
          "name": "",
          "type": "address"
        }
      ],
      "stateMutability": "view",
      "type": "function"
    },
    {
      "inputs": [],
      "name": "token",
      "outputs": [
        {
          "internalType": "contract IERC20",
          "name": "",
          "type": "address"
        }
      ],
      "stateMutability": "view",
      "type": "function"
    }
  ],
  "bytecode": "0x60806040523480156200001157600080fd5b506040516200136f3803806200136f833981810160405281019062000037919062000129565b336000806101000a81548173ffffffffffffffffffffffffffffffffffffffff021916908373ffffffffffffffffffffffffffffffffffffffff16021790555080600160006101000a81548173ffffffffffffffffffffffffffffffffffffffff021916908373ffffffffffffffffffffffffffffffffffffffff160217905550506200015b565b600080fd5b600073ffffffffffffffffffffffffffffffffffffffff82169050919050565b6000620000f182620000c4565b9050919050565b6200010381620000e4565b81146200010f57600080fd5b50565b6000815190506200012381620000f8565b92915050565b600060208284031215620001425762000141620000bf565b5b6000620001528482850162000112565b91505092915050565b611204806200016b6000396000f3fe608060405234801561001057600080fd5b50600436106100575760003560e01c806381257bd51461005c578063c550931514610078578063e210a72d146100ab578063f446c38f146100c7578063fc0c546a146100e5575b600080fd5b61007660048036038101906100719190610a46565b610103565b005b610092600480360381019061008d9190610a46565b610485565b6040516100a29493929190610af1565b60405180910390f35b6100c560048036038101906100c09190610b36565b6104ff565b005b6100cf6109c1565b6040516100dc9190610b89565b60405180910390f35b6100ed6109e5565b6040516100fa9190610c03565b60405180910390f35b60008054906101000a900473ffffffffffffffffffffffffffffffffffffffff1673ffffffffffffffffffffffffffffffffffffffff163373ffffffffffffffffffffffffffffffffffffffff1614610191576040517f08c379a000000000000000000000000000000000000000000000000000000000815260040161018890610c7b565b60405180910390fd5b6000600260008481526020019081526020016000209050808054905082106101ee576040517f08c379a00000000000000000000000000000000000000000000000000000000081526004016101e590610ce7565b60405180910390fd5b60005b818054905081101561047f578281036102ee57600160009054906101000a900473ffffffffffffffffffffffffffffffffffffffff1673ffffffffffffffffffffffffffffffffffffffff1663a9059cbb60008054906101000a900473ffffffffffffffffffffffffffffffffffffffff1684848154811061027657610275610d07565b5b9060005260206000209060040201600201546040518363ffffffff1660e01b81526004016102a5929190610d36565b6020604051808303816000875af11580156102c4573d6000803e3d6000fd5b505050506040513d601f19601f820116820180604052508101906102e89190610d8b565b5061046c565b81818154811061030157610300610d07565b5b906000526020600020906004020160030160009054906101000a900460ff1661046b57600160009054906101000a900473ffffffffffffffffffffffffffffffffffffffff1673ffffffffffffffffffffffffffffffffffffffff1663a9059cbb83838154811061037557610374610d07565b5b906000526020600020906004020160000160009054906101000a900473ffffffffffffffffffffffffffffffffffffffff168484815481106103ba576103b9610d07565b5b9060005260206000209060040201600201546040518363ffffffff1660e01b81526004016103e9929190610d36565b6020604051808303816000875af1158015610408573d6000803e3d6000fd5b505050506040513d601f19601f8201168201806040525081019061042c9190610d8b565b50600182828154811061044257610441610d07565b5b906000526020600020906004020160030160006101000a81548160ff0219169083151502179055505b5b808061047790610de7565b9150506101f1565b50505050565b600260205281600052604060002081815481106104a157600080fd5b9060005260206000209060040201600091509150508060000160009054906101000a900473ffffffffffffffffffffffffffffffffffffffff16908060010154908060020154908060030160009054906101000a900460ff16905084565b60008311610542576040517f08c379a000000000000000000000000000000000000000000000000000000000815260040161053990610e7b565b60405180910390fd5b60008211610585576040517f08c379a000000000000000000000000000000000000000000000000000000000815260040161057c90610f0d565b60405180910390fd5b600081116105c8576040517f08c379a00000000000000000000000000000000000000000000000000000000081526004016105bf90610f9f565b60405180910390fd5b6000600160009054906101000a900473ffffffffffffffffffffffffffffffffffffffff1673ffffffffffffffffffffffffffffffffffffffff1663dd62ed3e33306040518363ffffffff1660e01b8152600401610627929190610fbf565b602060405180830381865afa158015610644573d6000803e3d6000fd5b505050506040513d601f19601f820116820180604052508101906106689190610ffd565b9050818110156106ad576040517f08c379a00000000000000000000000000000000000000000000000000000000081526004016106a490611076565b60405180910390fd5b6000600160009054906101000a900473ffffffffffffffffffffffffffffffffffffffff1673ffffffffffffffffffffffffffffffffffffffff166370a08231336040518263ffffffff1660e01b815260040161070a9190610b89565b602060405180830381865afa158015610727573d6000803e3d6000fd5b505050506040513d601f19601f8201168201806040525081019061074b9190610ffd565b905082811015610790576040517f08c379a0000000000000000000000000000000000000000000000000000000008152600401610787906110e2565b60405180910390fd5b6000600160009054906101000a900473ffffffffffffffffffffffffffffffffffffffff1673ffffffffffffffffffffffffffffffffffffffff166323b872dd3330876040518463ffffffff1660e01b81526004016107f193929190611102565b6020604051808303816000875af1158015610810573d6000803e3d6000fd5b505050506040513d601f19601f820116820180604052508101906108349190610d8b565b905080610876576040517f08c379a000000000000000000000000000000000000000000000000000000000815260040161086d90611185565b60405180910390fd5b6002600087815260200190815260200160002060405180608001604052803373ffffffffffffffffffffffffffffffffffffffff16815260200187815260200186815260200160001515815250908060018154018082558091505060019003906000526020600020906004020160009091909190915060008201518160000160006101000a81548173ffffffffffffffffffffffffffffffffffffffff021916908373ffffffffffffffffffffffffffffffffffffffff160217905550602082015181600101556040820151816002015560608201518160030160006101000a81548160ff02191690831515021790555050503373ffffffffffffffffffffffffffffffffffffffff167f7beddbbf70d8b2a25af77e15d4a173af5f34673a1e7302c7af208aac599dc6db87876040516109b19291906111a5565b60405180910390a2505050505050565b60008054906101000a900473ffffffffffffffffffffffffffffffffffffffff1681565b600160009054906101000a900473ffffffffffffffffffffffffffffffffffffffff1681565b600080fd5b6000819050919050565b610a2381610a10565b8114610a2e57600080fd5b50565b600081359050610a4081610a1a565b92915050565b60008060408385031215610a5d57610a5c610a0b565b5b6000610a6b85828601610a31565b9250506020610a7c85828601610a31565b9150509250929050565b600073ffffffffffffffffffffffffffffffffffffffff82169050919050565b6000610ab182610a86565b9050919050565b610ac181610aa6565b82525050565b610ad081610a10565b82525050565b60008115159050919050565b610aeb81610ad6565b82525050565b6000608082019050610b066000830187610ab8565b610b136020830186610ac7565b610b206040830185610ac7565b610b2d6060830184610ae2565b95945050505050565b600080600060608486031215610b4f57610b4e610a0b565b5b6000610b5d86828701610a31565b9350506020610b6e86828701610a31565b9250506040610b7f86828701610a31565b9150509250925092565b6000602082019050610b9e6000830184610ab8565b92915050565b6000819050919050565b6000610bc9610bc4610bbf84610a86565b610ba4565b610a86565b9050919050565b6000610bdb82610bae565b9050919050565b6000610bed82610bd0565b9050919050565b610bfd81610be2565b82525050565b6000602082019050610c186000830184610bf4565b92915050565b600082825260208201905092915050565b7f4f6e6c79206f776e65722063616e20616363657074206f666665720000000000600082015250565b6000610c65601b83610c1e565b9150610c7082610c2f565b602082019050919050565b60006020820190508181036000830152610c9481610c58565b9050919050565b7f496e76616c6964206f6666657220696e64657800000000000000000000000000600082015250565b6000610cd1601383610c1e565b9150610cdc82610c9b565b602082019050919050565b60006020820190508181036000830152610d0081610cc4565b9050919050565b7f4e487b7100000000000000000000000000000000000000000000000000000000600052603260045260246000fd5b6000604082019050610d4b6000830185610ab8565b610d586020830184610ac7565b9392505050565b610d6881610ad6565b8114610d7357600080fd5b50565b600081519050610d8581610d5f565b92915050565b600060208284031215610da157610da0610a0b565b5b6000610daf84828501610d76565b91505092915050565b7f4e487b7100000000000000000000000000000000000000000000000000000000600052601160045260246000fd5b6000610df282610a10565b91507fffffffffffffffffffffffffffffffffffffffffffffffffffffffffffffffff8203610e2457610e23610db8565b5b600182019050919050565b7f496e76616c69642070726f706572747920494400000000000000000000000000600082015250565b6000610e65601383610c1e565b9150610e7082610e2f565b602082019050919050565b60006020820190508181036000830152610e9481610e58565b9050919050565b7f4f6666657220616d6f756e74206d75737420626520677265617465722074686160008201527f6e207a65726f0000000000000000000000000000000000000000000000000000602082015250565b6000610ef7602683610c1e565b9150610f0282610e9b565b604082019050919050565b60006020820190508181036000830152610f2681610eea565b9050919050565b7f546f6b656e20616d6f756e74206d75737420626520677265617465722074686160008201527f6e207a65726f0000000000000000000000000000000000000000000000000000602082015250565b6000610f89602683610c1e565b9150610f9482610f2d565b604082019050919050565b60006020820190508181036000830152610fb881610f7c565b9050919050565b6000604082019050610fd46000830185610ab8565b610fe16020830184610ab8565b9392505050565b600081519050610ff781610a1a565b92915050565b60006020828403121561101357611012610a0b565b5b600061102184828501610fe8565b91505092915050565b7f496e73756666696369656e7420616c6c6f77616e636500000000000000000000600082015250565b6000611060601683610c1e565b915061106b8261102a565b602082019050919050565b6000602082019050818103600083015261108f81611053565b9050919050565b7f496e73756666696369656e7420746f6b656e2062616c616e6365000000000000600082015250565b60006110cc601a83610c1e565b91506110d782611096565b602082019050919050565b600060208201905081810360008301526110fb816110bf565b9050919050565b60006060820190506111176000830186610ab8565b6111246020830185610ab8565b6111316040830184610ac7565b949350505050565b7f546f6b656e207472616e73666572206661696c65640000000000000000000000600082015250565b600061116f601583610c1e565b915061117a82611139565b602082019050919050565b6000602082019050818103600083015261119e81611162565b9050919050565b60006040820190506111ba6000830185610ac7565b6111c76020830184610ac7565b939250505056fea2646970667358221220f744ca3ceffa0f3408ba2fb03a3ee150208033b9662143a9bf7139a7e260c1b364736f6c63430008140033",
  "linkReferences": {},
  "deployedLinkReferences": {}
}