{
  "_format": "hh-sol-artifact-1",
  "contractName": "PropertyNFT",
  "sourceName": "contracts/PropertyNFT.sol",
  "abi": [
    {
      "inputs": [],
      "stateMutability": "nonpayable",
      "type": "constructor"
    },
    {
      "inputs": [
        {
          "internalType": "address",
          "name": "sender",
          "type": "address"
        },
        {
          "internalType": "uint256",
          "name": "tokenId",
          "type": "uint256"
        },
        {
          "internalType": "address",
          "name": "owner",
          "type": "address"
        }
      ],
      "name": "ERC721IncorrectOwner",
      "type": "error"
    },
    {
      "inputs": [
        {
          "internalType": "address",
          "name": "operator",
          "type": "address"
        },
        {
          "internalType": "uint256",
          "name": "tokenId",
          "type": "uint256"
        }
      ],
      "name": "ERC721InsufficientApproval",
      "type": "error"
    },
    {
      "inputs": [
        {
          "internalType": "address",
          "name": "approver",
          "type": "address"
        }
      ],
      "name": "ERC721InvalidApprover",
      "type": "error"
    },
    {
      "inputs": [
        {
          "internalType": "address",
          "name": "operator",
          "type": "address"
        }
      ],
      "name": "ERC721InvalidOperator",
      "type": "error"
    },
    {
      "inputs": [
        {
          "internalType": "address",
          "name": "owner",
          "type": "address"
        }
      ],
      "name": "ERC721InvalidOwner",
      "type": "error"
    },
    {
      "inputs": [
        {
          "internalType": "address",
          "name": "receiver",
          "type": "address"
        }
      ],
      "name": "ERC721InvalidReceiver",
      "type": "error"
    },
    {
      "inputs": [
        {
          "internalType": "address",
          "name": "sender",
          "type": "address"
        }
      ],
      "name": "ERC721InvalidSender",
      "type": "error"
    },
    {
      "inputs": [
        {
          "internalType": "uint256",
          "name": "tokenId",
          "type": "uint256"
        }
      ],
      "name": "ERC721NonexistentToken",
      "type": "error"
    },
    {
      "anonymous": false,
      "inputs": [
        {
          "indexed": true,
          "internalType": "address",
          "name": "owner",
          "type": "address"
        },
        {
          "indexed": true,
          "internalType": "address",
          "name": "approved",
          "type": "address"
        },
        {
          "indexed": true,
          "internalType": "uint256",
          "name": "tokenId",
          "type": "uint256"
        }
      ],
      "name": "Approval",
      "type": "event"
    },
    {
      "anonymous": false,
      "inputs": [
        {
          "indexed": true,
          "internalType": "address",
          "name": "owner",
          "type": "address"
        },
        {
          "indexed": true,
          "internalType": "address",
          "name": "operator",
          "type": "address"
        },
        {
          "indexed": false,
          "internalType": "bool",
          "name": "approved",
          "type": "bool"
        }
      ],
      "name": "ApprovalForAll",
      "type": "event"
    },
    {
      "anonymous": false,
      "inputs": [
        {
          "indexed": false,
          "internalType": "uint256",
          "name": "_fromTokenId",
          "type": "uint256"
        },
        {
          "indexed": false,
          "internalType": "uint256",
          "name": "_toTokenId",
          "type": "uint256"
        }
      ],
      "name": "BatchMetadataUpdate",
      "type": "event"
    },
    {
      "anonymous": false,
      "inputs": [
        {
          "indexed": false,
          "internalType": "uint256",
          "name": "_tokenId",
          "type": "uint256"
        }
      ],
      "name": "MetadataUpdate",
      "type": "event"
    },
    {
      "anonymous": false,
      "inputs": [
        {
          "indexed": true,
          "internalType": "address",
          "name": "from",
          "type": "address"
        },
        {
          "indexed": true,
          "internalType": "address",
          "name": "to",
          "type": "address"
        },
        {
          "indexed": true,
          "internalType": "uint256",
          "name": "tokenId",
          "type": "uint256"
        }
      ],
      "name": "Transfer",
      "type": "event"
    },
    {
      "inputs": [
        {
          "internalType": "address",
          "name": "to",
          "type": "address"
        },
        {
          "internalType": "uint256",
          "name": "tokenId",
          "type": "uint256"
        }
      ],
      "name": "approve",
      "outputs": [],
      "stateMutability": "nonpayable",
      "type": "function"
    },
    {
      "inputs": [
        {
          "internalType": "address",
          "name": "owner",
          "type": "address"
        }
      ],
      "name": "balanceOf",
      "outputs": [
        {
          "internalType": "uint256",
          "name": "",
          "type": "uint256"
        }
      ],
      "stateMutability": "view",
      "type": "function"
    },
    {
      "inputs": [
        {
          "internalType": "uint256",
          "name": "tokenId",
          "type": "uint256"
        }
      ],
      "name": "getApproved",
      "outputs": [
        {
          "internalType": "address",
          "name": "",
          "type": "address"
        }
      ],
      "stateMutability": "view",
      "type": "function"
    },
    {
      "inputs": [
        {
          "internalType": "address",
          "name": "owner",
          "type": "address"
        },
        {
          "internalType": "address",
          "name": "operator",
          "type": "address"
        }
      ],
      "name": "isApprovedForAll",
      "outputs": [
        {
          "internalType": "bool",
          "name": "",
          "type": "bool"
        }
      ],
      "stateMutability": "view",
      "type": "function"
    },
    {
      "inputs": [
        {
          "internalType": "string",
          "name": "tokenURI",
          "type": "string"
        }
      ],
      "name": "mintProperty",
      "outputs": [
        {
          "internalType": "uint256",
          "name": "",
          "type": "uint256"
        }
      ],
      "stateMutability": "nonpayable",
      "type": "function"
    },
    {
      "inputs": [],
      "name": "name",
      "outputs": [
        {
          "internalType": "string",
          "name": "",
          "type": "string"
        }
      ],
      "stateMutability": "view",
      "type": "function"
    },
    {
      "inputs": [
        {
          "internalType": "uint256",
          "name": "tokenId",
          "type": "uint256"
        }
      ],
      "name": "ownerOf",
      "outputs": [
        {
          "internalType": "address",
          "name": "",
          "type": "address"
        }
      ],
      "stateMutability": "view",
      "type": "function"
    },
    {
      "inputs": [
        {
          "internalType": "address",
          "name": "from",
          "type": "address"
        },
        {
          "internalType": "address",
          "name": "to",
          "type": "address"
        },
        {
          "internalType": "uint256",
          "name": "tokenId",
          "type": "uint256"
        }
      ],
      "name": "safeTransferFrom",
      "outputs": [],
      "stateMutability": "nonpayable",
      "type": "function"
    },
    {
      "inputs": [
        {
          "internalType": "address",
          "name": "from",
          "type": "address"
        },
        {
          "internalType": "address",
          "name": "to",
          "type": "address"
        },
        {
          "internalType": "uint256",
          "name": "tokenId",
          "type": "uint256"
        },
        {
          "internalType": "bytes",
          "name": "data",
          "type": "bytes"
        }
      ],
      "name": "safeTransferFrom",
      "outputs": [],
      "stateMutability": "nonpayable",
      "type": "function"
    },
    {
      "inputs": [
        {
          "internalType": "address",
          "name": "operator",
          "type": "address"
        },
        {
          "internalType": "bool",
          "name": "approved",
          "type": "bool"
        }
      ],
      "name": "setApprovalForAll",
      "outputs": [],
      "stateMutability": "nonpayable",
      "type": "function"
    },
    {
      "inputs": [
        {
          "internalType": "bytes4",
          "name": "interfaceId",
          "type": "bytes4"
        }
      ],
      "name": "supportsInterface",
      "outputs": [
        {
          "internalType": "bool",
          "name": "",
          "type": "bool"
        }
      ],
      "stateMutability": "view",
      "type": "function"
    },
    {
      "inputs": [],
      "name": "symbol",
      "outputs": [
        {
          "internalType": "string",
          "name": "",
          "type": "string"
        }
      ],
      "stateMutability": "view",
      "type": "function"
    },
    {
      "inputs": [],
      "name": "tokenCounter",
      "outputs": [
        {
          "internalType": "uint256",
          "name": "",
          "type": "uint256"
        }
      ],
      "stateMutability": "view",
      "type": "function"
    },
    {
      "inputs": [
        {
          "internalType": "uint256",
          "name": "tokenId",
          "type": "uint256"
        }
      ],
      "name": "tokenURI",
      "outputs": [
        {
          "internalType": "string",
          "name": "",
          "type": "string"
        }
      ],
      "stateMutability": "view",
      "type": "function"
    },
    {
      "inputs": [
        {
          "internalType": "address",
          "name": "from",
          "type": "address"
        },
        {
          "internalType": "address",
          "name": "to",
          "type": "address"
        },
        {
          "internalType": "uint256",
          "name": "tokenId",
          "type": "uint256"
        }
      ],
      "name": "transferFrom",
      "outputs": [],
      "stateMutability": "nonpayable",
      "type": "function"
    },
    {
      "inputs": [
        {
          "internalType": "address",
          "name": "to",
          "type": "address"
        },
        {
          "internalType": "uint256",
          "name": "tokenId",
          "type": "uint256"
        }
      ],
      "name": "transferProperty",
      "outputs": [],
      "stateMutability": "nonpayable",
      "type": "function"
    }
  ],
  "bytecode": "0x60806040523480156200001157600080fd5b506040518060400160405280600b81526020017f50726f70657274794e46540000000000000000000000000000000000000000008152506040518060400160405280600481526020017f50524f500000000000000000000000000000000000000000000000000000000081525081600090816200008f91906200032c565b508060019081620000a191906200032c565b505050600060078190555062000413565b600081519050919050565b7f4e487b7100000000000000000000000000000000000000000000000000000000600052604160045260246000fd5b7f4e487b7100000000000000000000000000000000000000000000000000000000600052602260045260246000fd5b600060028204905060018216806200013457607f821691505b6020821081036200014a5762000149620000ec565b5b50919050565b60008190508160005260206000209050919050565b60006020601f8301049050919050565b600082821b905092915050565b600060088302620001b47fffffffffffffffffffffffffffffffffffffffffffffffffffffffffffffffff8262000175565b620001c0868362000175565b95508019841693508086168417925050509392505050565b6000819050919050565b6000819050919050565b60006200020d620002076200020184620001d8565b620001e2565b620001d8565b9050919050565b6000819050919050565b6200022983620001ec565b62000241620002388262000214565b84845462000182565b825550505050565b600090565b6200025862000249565b620002658184846200021e565b505050565b5b818110156200028d57620002816000826200024e565b6001810190506200026b565b5050565b601f821115620002dc57620002a68162000150565b620002b18462000165565b81016020851015620002c1578190505b620002d9620002d08562000165565b8301826200026a565b50505b505050565b600082821c905092915050565b60006200030160001984600802620002e1565b1980831691505092915050565b60006200031c8383620002ee565b9150826002028217905092915050565b6200033782620000b2565b67ffffffffffffffff811115620003535762000352620000bd565b5b6200035f82546200011b565b6200036c82828562000291565b600060209050601f831160018114620003a457600084156200038f578287015190505b6200039b85826200030e565b8655506200040b565b601f198416620003b48662000150565b60005b82811015620003de57848901518255600182019150602085019450602081019050620003b7565b86831015620003fe5784890151620003fa601f891682620002ee565b8355505b6001600288020188555050505b505050505050565b6126a480620004236000396000f3fe608060405234801561001057600080fd5b50600436106101005760003560e01c806395d89b4111610097578063d082e38111610066578063d082e381146102bd578063d850c94c146102db578063e985e9c51461030b578063f644c3181461033b57610100565b806395d89b4114610237578063a22cb46514610255578063b88d4fde14610271578063c87b56dd1461028d57610100565b806323b872dd116100d357806323b872dd1461019f57806342842e0e146101bb5780636352211e146101d757806370a082311461020757610100565b806301ffc9a71461010557806306fdde0314610135578063081812fc14610153578063095ea7b314610183575b600080fd5b61011f600480360381019061011a9190611aa3565b610357565b60405161012c9190611aeb565b60405180910390f35b61013d6103b8565b60405161014a9190611b96565b60405180910390f35b61016d60048036038101906101689190611bee565b61044a565b60405161017a9190611c5c565b60405180910390f35b61019d60048036038101906101989190611ca3565b610466565b005b6101b960048036038101906101b49190611ce3565b61047c565b005b6101d560048036038101906101d09190611ce3565b61057e565b005b6101f160048036038101906101ec9190611bee565b61059e565b6040516101fe9190611c5c565b60405180910390f35b610221600480360381019061021c9190611d36565b6105b0565b60405161022e9190611d72565b60405180910390f35b61023f61066a565b60405161024c9190611b96565b60405180910390f35b61026f600480360381019061026a9190611db9565b6106fc565b005b61028b60048036038101906102869190611f2e565b610712565b005b6102a760048036038101906102a29190611bee565b610737565b6040516102b49190611b96565b60405180910390f35b6102c561084a565b6040516102d29190611d72565b60405180910390f35b6102f560048036038101906102f09190612052565b610850565b6040516103029190611d72565b60405180910390f35b6103256004803603810190610320919061209b565b61088d565b6040516103329190611aeb565b60405180910390f35b61035560048036038101906103509190611ca3565b610921565b005b6000634906490660e01b7bffffffffffffffffffffffffffffffffffffffffffffffffffffffff1916827bffffffffffffffffffffffffffffffffffffffffffffffffffffffff191614806103b157506103b0826109a6565b5b9050919050565b6060600080546103c79061210a565b80601f01602080910402602001604051908101604052809291908181526020018280546103f39061210a565b80156104405780601f1061041557610100808354040283529160200191610440565b820191906000526020600020905b81548152906001019060200180831161042357829003601f168201915b5050505050905090565b600061045582610a88565b5061045f82610b10565b9050919050565b6104788282610473610b4d565b610b55565b5050565b600073ffffffffffffffffffffffffffffffffffffffff168273ffffffffffffffffffffffffffffffffffffffff16036104ee5760006040517f64a0ae920000000000000000000000000000000000000000000000000000000081526004016104e59190611c5c565b60405180910390fd5b600061050283836104fd610b4d565b610b67565b90508373ffffffffffffffffffffffffffffffffffffffff168173ffffffffffffffffffffffffffffffffffffffff1614610578578382826040517f64283d7b00000000000000000000000000000000000000000000000000000000815260040161056f9392919061213b565b60405180910390fd5b50505050565b61059983838360405180602001604052806000815250610712565b505050565b60006105a982610a88565b9050919050565b60008073ffffffffffffffffffffffffffffffffffffffff168273ffffffffffffffffffffffffffffffffffffffff16036106235760006040517f89c62b6400000000000000000000000000000000000000000000000000000000815260040161061a9190611c5c565b60405180910390fd5b600360008373ffffffffffffffffffffffffffffffffffffffff1673ffffffffffffffffffffffffffffffffffffffff168152602001908152602001600020549050919050565b6060600180546106799061210a565b80601f01602080910402602001604051908101604052809291908181526020018280546106a59061210a565b80156106f25780601f106106c7576101008083540402835291602001916106f2565b820191906000526020600020905b8154815290600101906020018083116106d557829003601f168201915b5050505050905090565b61070e610707610b4d565b8383610d81565b5050565b61071d84848461047c565b610731610728610b4d565b85858585610ef0565b50505050565b606061074282610a88565b5060006006600084815260200190815260200160002080546107639061210a565b80601f016020809104026020016040519081016040528092919081815260200182805461078f9061210a565b80156107dc5780601f106107b1576101008083540402835291602001916107dc565b820191906000526020600020905b8154815290600101906020018083116107bf57829003601f168201915b5050505050905060006107ed6110a1565b90506000815103610802578192505050610845565b60008251111561083757808260405160200161081f9291906121ae565b60405160208183030381529060405292505050610845565b610840846110b8565b925050505b919050565b60075481565b60008060075490506108623382611121565b61086c818461113f565b6007600081548092919061087f90612201565b919050555080915050919050565b6000600560008473ffffffffffffffffffffffffffffffffffffffff1673ffffffffffffffffffffffffffffffffffffffff16815260200190815260200160002060008373ffffffffffffffffffffffffffffffffffffffff1673ffffffffffffffffffffffffffffffffffffffff16815260200190815260200160002060009054906101000a900460ff16905092915050565b3373ffffffffffffffffffffffffffffffffffffffff166109418261059e565b73ffffffffffffffffffffffffffffffffffffffff1614610997576040517f08c379a000000000000000000000000000000000000000000000000000000000815260040161098e90612295565b60405180910390fd5b6109a233838361119b565b5050565b60007f80ac58cd000000000000000000000000000000000000000000000000000000007bffffffffffffffffffffffffffffffffffffffffffffffffffffffff1916827bffffffffffffffffffffffffffffffffffffffffffffffffffffffff19161480610a7157507f5b5e139f000000000000000000000000000000000000000000000000000000007bffffffffffffffffffffffffffffffffffffffffffffffffffffffff1916827bffffffffffffffffffffffffffffffffffffffffffffffffffffffff1916145b80610a815750610a8082611308565b5b9050919050565b600080610a9483611372565b9050600073ffffffffffffffffffffffffffffffffffffffff168173ffffffffffffffffffffffffffffffffffffffff1603610b0757826040517f7e273289000000000000000000000000000000000000000000000000000000008152600401610afe9190611d72565b60405180910390fd5b80915050919050565b60006004600083815260200190815260200160002060009054906101000a900473ffffffffffffffffffffffffffffffffffffffff169050919050565b600033905090565b610b6283838360016113af565b505050565b600080610b7384611372565b9050600073ffffffffffffffffffffffffffffffffffffffff168373ffffffffffffffffffffffffffffffffffffffff1614610bb557610bb4818486611574565b5b600073ffffffffffffffffffffffffffffffffffffffff168173ffffffffffffffffffffffffffffffffffffffff1614610c4657610bf76000856000806113af565b6001600360008373ffffffffffffffffffffffffffffffffffffffff1673ffffffffffffffffffffffffffffffffffffffff168152602001908152602001600020600082825403925050819055505b600073ffffffffffffffffffffffffffffffffffffffff168573ffffffffffffffffffffffffffffffffffffffff1614610cc9576001600360008773ffffffffffffffffffffffffffffffffffffffff1673ffffffffffffffffffffffffffffffffffffffff168152602001908152602001600020600082825401925050819055505b846002600086815260200190815260200160002060006101000a81548173ffffffffffffffffffffffffffffffffffffffff021916908373ffffffffffffffffffffffffffffffffffffffff160217905550838573ffffffffffffffffffffffffffffffffffffffff168273ffffffffffffffffffffffffffffffffffffffff167fddf252ad1be2c89b69c2b068fc378daa952ba7f163c4a11628f55a4df523b3ef60405160405180910390a4809150509392505050565b600073ffffffffffffffffffffffffffffffffffffffff168273ffffffffffffffffffffffffffffffffffffffff1603610df257816040517f5b08ba18000000000000000000000000000000000000000000000000000000008152600401610de99190611c5c565b60405180910390fd5b80600560008573ffffffffffffffffffffffffffffffffffffffff1673ffffffffffffffffffffffffffffffffffffffff16815260200190815260200160002060008473ffffffffffffffffffffffffffffffffffffffff1673ffffffffffffffffffffffffffffffffffffffff16815260200190815260200160002060006101000a81548160ff0219169083151502179055508173ffffffffffffffffffffffffffffffffffffffff168373ffffffffffffffffffffffffffffffffffffffff167f17307eab39ab6107e8899845ad3d59bd9653f200f220920489ca2b5937696c3183604051610ee39190611aeb565b60405180910390a3505050565b60008373ffffffffffffffffffffffffffffffffffffffff163b111561109a578273ffffffffffffffffffffffffffffffffffffffff1663150b7a02868685856040518563ffffffff1660e01b8152600401610f4f949392919061230a565b6020604051808303816000875af1925050508015610f8b57506040513d601f19601f82011682018060405250810190610f88919061236b565b60015b61100f573d8060008114610fbb576040519150601f19603f3d011682016040523d82523d6000602084013e610fc0565b606091505b50600081510361100757836040517f64a0ae92000000000000000000000000000000000000000000000000000000008152600401610ffe9190611c5c565b60405180910390fd5b805181602001fd5b63150b7a0260e01b7bffffffffffffffffffffffffffffffffffffffffffffffffffffffff1916817bffffffffffffffffffffffffffffffffffffffffffffffffffffffff19161461109857836040517f64a0ae9200000000000000000000000000000000000000000000000000000000815260040161108f9190611c5c565b60405180910390fd5b505b5050505050565b606060405180602001604052806000815250905090565b60606110c382610a88565b5060006110ce6110a1565b905060008151116110ee5760405180602001604052806000815250611119565b806110f884611638565b6040516020016111099291906121ae565b6040516020818303038152906040525b915050919050565b61113b828260405180602001604052806000815250611706565b5050565b8060066000848152602001908152602001600020908161115f9190612544565b507ff8e1a15aba9398e019f0b49df1a4fde98ee17ae345cb5f6b5e2c27f5033e8ce78260405161118f9190611d72565b60405180910390a15050565b600073ffffffffffffffffffffffffffffffffffffffff168273ffffffffffffffffffffffffffffffffffffffff160361120d5760006040517f64a0ae920000000000000000000000000000000000000000000000000000000081526004016112049190611c5c565b60405180910390fd5b600061121b83836000610b67565b9050600073ffffffffffffffffffffffffffffffffffffffff168173ffffffffffffffffffffffffffffffffffffffff160361128e57816040517f7e2732890000000000000000000000000000000000000000000000000000000081526004016112859190611d72565b60405180910390fd5b8373ffffffffffffffffffffffffffffffffffffffff168173ffffffffffffffffffffffffffffffffffffffff1614611302578382826040517f64283d7b0000000000000000000000000000000000000000000000000000000081526004016112f99392919061213b565b60405180910390fd5b50505050565b60007f01ffc9a7000000000000000000000000000000000000000000000000000000007bffffffffffffffffffffffffffffffffffffffffffffffffffffffff1916827bffffffffffffffffffffffffffffffffffffffffffffffffffffffff1916149050919050565b60006002600083815260200190815260200160002060009054906101000a900473ffffffffffffffffffffffffffffffffffffffff169050919050565b80806113e85750600073ffffffffffffffffffffffffffffffffffffffff168273ffffffffffffffffffffffffffffffffffffffff1614155b1561151c5760006113f884610a88565b9050600073ffffffffffffffffffffffffffffffffffffffff168373ffffffffffffffffffffffffffffffffffffffff161415801561146357508273ffffffffffffffffffffffffffffffffffffffff168173ffffffffffffffffffffffffffffffffffffffff1614155b80156114765750611474818461088d565b155b156114b857826040517fa9fbf51f0000000000000000000000000000000000000000000000000000000081526004016114af9190611c5c565b60405180910390fd5b811561151a57838573ffffffffffffffffffffffffffffffffffffffff168273ffffffffffffffffffffffffffffffffffffffff167f8c5be1e5ebec7d5bd14f71427d1e84f3dd0314c0f7b2291e5b200ac8c7c3b92560405160405180910390a45b505b836004600085815260200190815260200160002060006101000a81548173ffffffffffffffffffffffffffffffffffffffff021916908373ffffffffffffffffffffffffffffffffffffffff16021790555050505050565b61157f83838361172a565b61163357600073ffffffffffffffffffffffffffffffffffffffff168373ffffffffffffffffffffffffffffffffffffffff16036115f457806040517f7e2732890000000000000000000000000000000000000000000000000000000081526004016115eb9190611d72565b60405180910390fd5b81816040517f177e802f00000000000000000000000000000000000000000000000000000000815260040161162a929190612616565b60405180910390fd5b505050565b606060006001611647846117eb565b01905060008167ffffffffffffffff81111561166657611665611e03565b5b6040519080825280601f01601f1916602001820160405280156116985781602001600182028036833780820191505090505b509050600082602001820190505b6001156116fb578080600190039150507f3031323334353637383961626364656600000000000000000000000000000000600a86061a8153600a85816116ef576116ee61263f565b5b049450600085036116a6575b819350505050919050565b611710838361193e565b61172561171b610b4d565b6000858585610ef0565b505050565b60008073ffffffffffffffffffffffffffffffffffffffff168373ffffffffffffffffffffffffffffffffffffffff16141580156117e257508273ffffffffffffffffffffffffffffffffffffffff168473ffffffffffffffffffffffffffffffffffffffff1614806117a357506117a2848461088d565b5b806117e157508273ffffffffffffffffffffffffffffffffffffffff166117c983610b10565b73ffffffffffffffffffffffffffffffffffffffff16145b5b90509392505050565b600080600090507a184f03e93ff9f4daa797ed6e38ed64bf6a1f0100000000000000008310611849577a184f03e93ff9f4daa797ed6e38ed64bf6a1f010000000000000000838161183f5761183e61263f565b5b0492506040810190505b6d04ee2d6d415b85acef81000000008310611886576d04ee2d6d415b85acef8100000000838161187c5761187b61263f565b5b0492506020810190505b662386f26fc1000083106118b557662386f26fc1000083816118ab576118aa61263f565b5b0492506010810190505b6305f5e10083106118de576305f5e10083816118d4576118d361263f565b5b0492506008810190505b61271083106119035761271083816118f9576118f861263f565b5b0492506004810190505b60648310611926576064838161191c5761191b61263f565b5b0492506002810190505b600a8310611935576001810190505b80915050919050565b600073ffffffffffffffffffffffffffffffffffffffff168273ffffffffffffffffffffffffffffffffffffffff16036119b05760006040517f64a0ae920000000000000000000000000000000000000000000000000000000081526004016119a79190611c5c565b60405180910390fd5b60006119be83836000610b67565b9050600073ffffffffffffffffffffffffffffffffffffffff168173ffffffffffffffffffffffffffffffffffffffff1614611a325760006040517f73c6ac6e000000000000000000000000000000000000000000000000000000008152600401611a299190611c5c565b60405180910390fd5b505050565b6000604051905090565b600080fd5b600080fd5b60007fffffffff0000000000000000000000000000000000000000000000000000000082169050919050565b611a8081611a4b565b8114611a8b57600080fd5b50565b600081359050611a9d81611a77565b92915050565b600060208284031215611ab957611ab8611a41565b5b6000611ac784828501611a8e565b91505092915050565b60008115159050919050565b611ae581611ad0565b82525050565b6000602082019050611b006000830184611adc565b92915050565b600081519050919050565b600082825260208201905092915050565b60005b83811015611b40578082015181840152602081019050611b25565b60008484015250505050565b6000601f19601f8301169050919050565b6000611b6882611b06565b611b728185611b11565b9350611b82818560208601611b22565b611b8b81611b4c565b840191505092915050565b60006020820190508181036000830152611bb08184611b5d565b905092915050565b6000819050919050565b611bcb81611bb8565b8114611bd657600080fd5b50565b600081359050611be881611bc2565b92915050565b600060208284031215611c0457611c03611a41565b5b6000611c1284828501611bd9565b91505092915050565b600073ffffffffffffffffffffffffffffffffffffffff82169050919050565b6000611c4682611c1b565b9050919050565b611c5681611c3b565b82525050565b6000602082019050611c716000830184611c4d565b92915050565b611c8081611c3b565b8114611c8b57600080fd5b50565b600081359050611c9d81611c77565b92915050565b60008060408385031215611cba57611cb9611a41565b5b6000611cc885828601611c8e565b9250506020611cd985828601611bd9565b9150509250929050565b600080600060608486031215611cfc57611cfb611a41565b5b6000611d0a86828701611c8e565b9350506020611d1b86828701611c8e565b9250506040611d2c86828701611bd9565b9150509250925092565b600060208284031215611d4c57611d4b611a41565b5b6000611d5a84828501611c8e565b91505092915050565b611d6c81611bb8565b82525050565b6000602082019050611d876000830184611d63565b92915050565b611d9681611ad0565b8114611da157600080fd5b50565b600081359050611db381611d8d565b92915050565b60008060408385031215611dd057611dcf611a41565b5b6000611dde85828601611c8e565b9250506020611def85828601611da4565b9150509250929050565b600080fd5b600080fd5b7f4e487b7100000000000000000000000000000000000000000000000000000000600052604160045260246000fd5b611e3b82611b4c565b810181811067ffffffffffffffff82111715611e5a57611e59611e03565b5b80604052505050565b6000611e6d611a37565b9050611e798282611e32565b919050565b600067ffffffffffffffff821115611e9957611e98611e03565b5b611ea282611b4c565b9050602081019050919050565b82818337600083830152505050565b6000611ed1611ecc84611e7e565b611e63565b905082815260208101848484011115611eed57611eec611dfe565b5b611ef8848285611eaf565b509392505050565b600082601f830112611f1557611f14611df9565b5b8135611f25848260208601611ebe565b91505092915050565b60008060008060808587031215611f4857611f47611a41565b5b6000611f5687828801611c8e565b9450506020611f6787828801611c8e565b9350506040611f7887828801611bd9565b925050606085013567ffffffffffffffff811115611f9957611f98611a46565b5b611fa587828801611f00565b91505092959194509250565b600067ffffffffffffffff821115611fcc57611fcb611e03565b5b611fd582611b4c565b9050602081019050919050565b6000611ff5611ff084611fb1565b611e63565b90508281526020810184848401111561201157612010611dfe565b5b61201c848285611eaf565b509392505050565b600082601f83011261203957612038611df9565b5b8135612049848260208601611fe2565b91505092915050565b60006020828403121561206857612067611a41565b5b600082013567ffffffffffffffff81111561208657612085611a46565b5b61209284828501612024565b91505092915050565b600080604083850312156120b2576120b1611a41565b5b60006120c085828601611c8e565b92505060206120d185828601611c8e565b9150509250929050565b7f4e487b7100000000000000000000000000000000000000000000000000000000600052602260045260246000fd5b6000600282049050600182168061212257607f821691505b602082108103612135576121346120db565b5b50919050565b60006060820190506121506000830186611c4d565b61215d6020830185611d63565b61216a6040830184611c4d565b949350505050565b600081905092915050565b600061218882611b06565b6121928185612172565b93506121a2818560208601611b22565b80840191505092915050565b60006121ba828561217d565b91506121c6828461217d565b91508190509392505050565b7f4e487b7100000000000000000000000000000000000000000000000000000000600052601160045260246000fd5b600061220c82611bb8565b91507fffffffffffffffffffffffffffffffffffffffffffffffffffffffffffffffff820361223e5761223d6121d2565b5b600182019050919050565b7f4f6e6c79206f776e65722063616e207472616e736665722070726f7065727479600082015250565b600061227f602083611b11565b915061228a82612249565b602082019050919050565b600060208201905081810360008301526122ae81612272565b9050919050565b600081519050919050565b600082825260208201905092915050565b60006122dc826122b5565b6122e681856122c0565b93506122f6818560208601611b22565b6122ff81611b4c565b840191505092915050565b600060808201905061231f6000830187611c4d565b61232c6020830186611c4d565b6123396040830185611d63565b818103606083015261234b81846122d1565b905095945050505050565b60008151905061236581611a77565b92915050565b60006020828403121561238157612380611a41565b5b600061238f84828501612356565b91505092915050565b60008190508160005260206000209050919050565b60006020601f8301049050919050565b600082821b905092915050565b6000600883026123fa7fffffffffffffffffffffffffffffffffffffffffffffffffffffffffffffffff826123bd565b61240486836123bd565b95508019841693508086168417925050509392505050565b6000819050919050565b600061244161243c61243784611bb8565b61241c565b611bb8565b9050919050565b6000819050919050565b61245b83612426565b61246f61246782612448565b8484546123ca565b825550505050565b600090565b612484612477565b61248f818484612452565b505050565b5b818110156124b3576124a860008261247c565b600181019050612495565b5050565b601f8211156124f8576124c981612398565b6124d2846123ad565b810160208510156124e1578190505b6124f56124ed856123ad565b830182612494565b50505b505050565b600082821c905092915050565b600061251b600019846008026124fd565b1980831691505092915050565b6000612534838361250a565b9150826002028217905092915050565b61254d82611b06565b67ffffffffffffffff81111561256657612565611e03565b5b612570825461210a565b61257b8282856124b7565b600060209050601f8311600181146125ae576000841561259c578287015190505b6125a68582612528565b86555061260e565b601f1984166125bc86612398565b60005b828110156125e4578489015182556001820191506020850194506020810190506125bf565b8683101561260157848901516125fd601f89168261250a565b8355505b6001600288020188555050505b505050505050565b600060408201905061262b6000830185611c4d565b6126386020830184611d63565b9392505050565b7f4e487b7100000000000000000000000000000000000000000000000000000000600052601260045260246000fdfea26469706673582212205f77668c994836be01a5b61a2722b79bdbe12160203355f2cf668de88e0cad3564736f6c63430008140033",
  "linkReferences": {},
  "deployedLinkReferences": {}
}